:020000040800F2
:10400000B045002071AF0108959C0108B99C0108DA
:1040100000000000000000000000000000000000A0
:10402000000000000000000000000000E78500081C
:104030000000000000000000BFB30008BF9C0108A2
:1040400083D3000800000000A3D300082FD9000884
:1040500057D9000873FC0008739D0108759D01087D
:1040600000000000EB080108F36401081B6501086B
:10407000B7660108736C0108BF78010800000000F2
:10408000D79C0108C79C0108CF9C0108B780010894
:10409000438A0108D7950108AB960108BB9901082E
:1040A0000F9A01087B9C01089FA40108AFA4010896
:1040B000DF9C0108299D010838B580480178012955
:1040C00034D17F490A78521C0A700A78042A0BDB23
:1040D00001207C4A107000207B4A107008709620E6
:1040E00080007A49088021E007210A000270784A9E
:1040F00000201070531C012425001D709070D0709A
:104100001072D579012D04D1724D2C7014241C70BD
:1041100010707148C07A012800D119706F4800787A
:10412000012803D10721022003F0EEFB31BDF0B5D9
:1041300087B00124684D200028702000687020009E
:10414000A8700B210026320001AF380004F024FAD9
:1041500004A863498CC98CC00C390C38002004F0C9
:10416000E7FA0700380080B200281BD038005D490C
:1041700080B2884216D0380080B28021090188427E
:104180000DDA0A2201A9002004F0E7FA04A901A827
:1041900004F012FC002805D13000287002E0200055
:1041A0005149C870012004F0C3FA69460880684686
:1041B000008800281BD0684600884A49884216D0EB
:1041C000684600888021090188420DDA0A2201A987
:1041D000012004F0C2FA04A901A804F0EDFB0028B4
:1041E00005D13000687002E020003F49C87002200D
:1041F00004F09EFA0700380080B200281AD0380078
:10420000384980B2884215D0380080B28021090137
:1042100088420CDA0A2201A9022004F09EFA04A9BD
:1042200001A804F0C9FB002804D1AE7002E0200010
:104230002D49C8702878012805D06878012802D057
:10424000A878012801D12848047107B0F0BD70B5E5
:10425000264CA54406008021C90000252A006C4692
:10426000200004F099F93000C0B204F061FA0400B3
:10427000200080B200281BD020001A4980B288425A
:1042800016D0200080B28021090188420DDA220078
:1042900092B269463000C0B204F05FFA210089B2E0
:1042A000684606F035F9050002E001200E49C870A5
:1042B000280080B28021C9008D4470BD7E1F00207F
:1042C000591F0020581F0020561F0020021F0020E9
:1042D000041E00205B1F0020A81D0020A81F002036
:1042E00098B20108FFFF0000F41D002000FCFFFF52
:1042F000F0B5A3B0DA4C00262680DA4DDA49280062
:1043000006F0AEFFD94801786A4651700A2100785C
:10431000081A6946087030007B212288A954218838
:10432000491C2180300069464978C0B2884200D3D8
:10433000FCE208200290CE48019020882F18029AB3
:104340000199380007F02EF82088083020803000CE
:10435000C0B209280CD13120218868542088401C23
:1043600020803020218868542088401C208006E06E
:1043700030003130218868542088401C2080222061
:10438000218868542088401C208003201490B9A004
:10439000139020882F18149A1399380007F002F808
:1043A0002088C01C208010201290B34811902088D3
:1043B0002F18129A1199380006F0F4FF2088103057
:1043C0002080AE480CC808382100280007F039FAD0
:1043D0002220218868542088401C20802C2021889D
:1043E00068542088401C208008201090A4480F901A
:1043F00020882F18109A0F99380006F0D3FF2088D4
:10440000083020809F483100C9B230225143401803
:10441000001D08F077FB029002989B4908F096FB7C
:10442000020000232100280007F00BFA2E2021882B
:1044300068542088401C20800298934908F086FB2D
:1044400008000A2108F082FB020000232100280056
:1044500007F0F7F92220218868542088401C20802A
:104460002C20218868542088401C208009200E9030
:1044700086480D9020882F180E9A0D99380006F066
:1044800091FF2088093020807E483100C9B2302257
:1044900051434018083008F035FB019001987A49E3
:1044A00008F054FB020000232100280007F0C9F99E
:1044B0002E20218868542088401C20800198724951
:1044C00008F044FB08000A2108F040FB020000232A
:1044D0002100280007F0B5F922202188685420889F
:1044E000401C20802C20218868542088401C20807B
:1044F00009200C9066480B9020882F180C9A0B9975
:10450000380006F04FFF2088093020805D483100D8
:10451000C9B2302251434018C27C00232100280038
:1045200007F08FF92220218868542088401C2080C1
:104530002C20218868542088401C208009200A9063
:104540005448099020882F180A9A0999380006F0D3
:1045500029FF2088093020804A483100C9B2302222
:1045600051434018C27C00232100280007F069F95C
:104570002220218868542088401C20802C202188FB
:1045800068542088401C20800820089042480790EA
:1045900020882F18089A0799380006F003FF208812
:1045A0000830208037483100C9B2302251434018CA
:1045B000827C00232100280007F043F92220218873
:1045C00068542088401C20802C2021886854208832
:1045D000401C20800E200690E848059020882F1867
:1045E000069A0599380006F0DDFE20880E302080FE
:1045F00024483100C9B23022514340182A21425C7C
:1046000000232100280007F01CF92220218868548B
:104610002088401C20802C20218868542088401C41
:1046200020800D200490D648039020882F18049AEB
:104630000399380006F0B6FE20880D30208011481E
:104640003100C9B23022514340182721405CC007D5
:1046500024D53120218868542088401C208023E004
:10466000061F002008040020C4090000861F002047
:104670000CB101083A207B0048A90108281E00203F
:1046800018B101083C1300208096980024B101085D
:1046900030B101083CB1010848B10108302021883F
:1046A00068542088401C208022202188685420885B
:1046B000401C20802C20218868542088401C2080A9
:1046C0000C200A90C948099020882F180A9A099945
:1046D000380006F067FE20880C302080C448310086
:1046E000C9B230225143401822300278417809067D
:1046F000090C0A4392B200232100280007F0A1F818
:104700007620218868542088401C2080222021881F
:1047100068542088401C20802C20218868542088E0
:10472000401C20800D200890B248079020882F1848
:10473000089A0799380006F035FE20880D30208051
:10474000AB483100C9B230225143401820300278C2
:1047500041780906090C0A4392B20023210028007F
:1047600007F06FF87620218868542088401C20804C
:104770002220218868542088401C20802C202188F9
:1047800068542088401C20800E2006909A4805908E
:1047900020882F18069A0599380006F003FE208815
:1047A0000E30208092483100C9B230225143401867
:1047B0002821425C00232100280007F042F8222033
:1047C000218868542088401C20802C20218868542F
:1047D0002088401C2080092004908848039020886D
:1047E0002F18049A0399380006F0DCFD2088093060
:1047F00020807F483100C9B230225143401808F070
:1048000081F9002116AA03C2083A16A808F0F5F9A2
:10481000010018A82C2206F0ABFD1D98784942181B
:10482000D3172100280007F00CF82D2720882F54DB
:104830002088401C20801C98092805DA3020218817
:1048400068542088401C20801C9A521CD3172100D9
:10485000280006F0F6FF20882F542088401C208076
:104860001B980A2805DA3020218868542088401CCB
:1048700020801B9AD3172100280006F0E2FF202099
:10488000218868542088401C20801A980A2805DA5C
:104890003020218868542088401C20801A9AD31721
:1048A0002100280006F0CDFF3A2720882F542088C9
:1048B000401C208019980A2805DA30202188685485
:1048C0002088401C2080199AD3172100280006F068
:1048D000B8FF20882F542088401C208018980A2870
:1048E00005DA3020218868542088401C2080189ADE
:1048F000D3172100280006F0A4FF22202188685445
:104900002088401C20807D20218868542088401CFD
:1049100020803000C0B2401C0A2805DA2C202188F3
:1049200068542088401C2080761CFBE46846007890
:10493000002853D06846007800284FD00820029005
:104940003048019020882F18029A0199380006F00B
:1049500029FD2088083020803000C0B2092811D1FC
:104960003120218868542088401C208030202188F4
:1049700068542088401C20800BE000BFD0AB0108A9
:10498000E0AB010830003130218868542088401C99
:104990002080761C2220218868542088401C20809A
:1049A00004200290C748019020882F18029A01998C
:1049B000380006F0F7FC2088001D20803000C0B2CF
:1049C0000A2805DA2C20218868542088401C208081
:1049D00068460078401E69460870ABE77D20218854
:1049E00068542088401C208023B0F0BDF0AB010843
:1049F0003C13002000AC010810AC010854B10108C0
:104A00006C0700000CB10108F0B595B0AE4C002069
:104A10002080AE4DAE49280006F022FC7B20218884
:104A200068542088401C208010200690A9480590DA
:104A300020882E18069A0599300006F0B3FC2088CD
:104A400010302080C6480CC808382100280006F025
:104A5000F8FE2220218868542088401C20802C20C9
:104A6000218868542088401C208009260496BD486F
:104A7000039020882F18049A0399380006F092FCBE
:104A8000208809302080B84808F0C6F80290B6485F
:104A9000019020882F18029A0199380006F082FCB4
:104AA0002788B14808F0B8F83818208022202188DB
:104AB00068542088401C20802C202188685420883D
:104AC000401C20800096A94F20882E18009A39009B
:104AD000300006F067FC208809302080A448006878
:104AE000002108AA03C2083A08A808F086F80100C5
:104AF0000AA82C2206F03CFC0F989E494218D317B6
:104B00002100280006F09DFE2D2620882E542088A6
:104B1000401C20800E98092805DA3020218868542E
:104B20002088401C20800E9A521CD3172100280098
:104B300006F087FE20882E542088401C20800D9887
:104B40000A2805DA3020218868542088401C2080FB
:104B50000D9AD3172100280006F073FE202021882B
:104B600068542088401C20800C980A2805DA3020E0
:104B7000218868542088401C20800C9AD31721007B
:104B8000280006F05EFE3A2620882E542088401C1D
:104B900020800B980A2805DA302021886854208864
:104BA000401C20800B9AD3172100280006F049FEF4
:104BB00020882E542088401C20800A980A2805DA74
:104BC0003020218868542088401C20800A9AD317FE
:104BD0002100280006F035FE222620882E54208849
:104BE000401C20802C2720882F542088401C2080A7
:104BF0000B20059060480490208828180090059AA2
:104C00000499009806F0CEFB009820880B30208095
:104C10003020218868542088401C208020882E5411
:104C20002088401C208020882F542088401C208011
:104C30000D20039051480290208828180090039A74
:104C40000299009806F0AEFB009820880D30208075
:104C50004B48028800232100280006F0F2FD762050
:104C6000218868542088401C208020882E54208869
:104C7000401C208020882F542088401C2080112038
:104C800001904048009020882F18019A0099380020
:104C900006F088FB2088113020803B480268002302
:104CA0002100280006F0CDFD20882E542088401CCD
:104CB00020807D20218868542088401C208015B0E9
:104CC000F0BD000000B50108061F00200804002008
:104CD000C409000048A90108FEB52C4C0020208022
:104CE0002B4D2C49280006F0BBFA7B202188685404
:104CF0002088401C208010200290274801902088A6
:104D00002E18029A0199300006F04CFB20881030D2
:104D1000208013480CC808382100280006F091FDB7
:104D20002220218868542088401C20802C20218843
:104D300068542088401C20800E200090174E208848
:104D40002F18009A3100380006F02CFB20880E3016
:104D500020807D20218868542088401C2080F7BD59
:104D6000281E002060B101083CAB010854B10108C5
:104D7000080000206C0700006CB1010800AC0108BD
:104D8000601D00205CA90108481B0020061F0020B0
:104D900008040020C409000048A9010820AC01084B
:104DA000F0B5A5B0434C00202080434D4349280076
:104DB00006F056FA7B20218868542088401C208009
:104DC000102006903E48059020882E18069A0599D6
:104DD000300006F0E7FA20881030208039480CC8EF
:104DE00008382100280006F02CFD22202188685474
:104DF0002088401C20802C20218868542088401C5A
:104E000020800F2604963048039020882F18049A9B
:104E10000399380006F0C6FA20880F3020802B480E
:104E2000028800232100280006F00BFD22202188A3
:104E300068542088401C20802C20218868542088B9
:104E4000401C208002962248019020882E18029A49
:104E50000199300006F0A6FA20880F30208030201B
:104E6000218868542088401C208022202188685492
:104E70002088401C20802C20218868542088401CD9
:104E8000208011200090134F20882E18009A39009E
:104E9000300006F087FA2088113020800E4EB0785E
:104EA00001281BD13120218868542088401C208093
:104EB0004CE000BF061F002008040020C4090000C9
:104EC00048A90108281E002030AC0108241F00203A
:104ED00040AC010870A90108F41D002030790128B8
:104EE00006D13220218868542088401C20802DE083
:104EF000F078012806D13320218868542088401C8E
:104F0000208023E0707A012806D13420218868545B
:104F10002088401C208019E0B079012806D1352076
:104F2000218868542088401C20800FE07079012877
:104F300006D13620218868542088401C208005E056
:104F40003020218868542088401C2080222021881D
:104F500068542088401C20802C2021886854208898
:104F6000401C20800C201690E248159020882F18B5
:104F7000169A1599380006F015FA20880C30208012
:104F80000D201490DC48139020882F18149A139940
:104F9000380006F007FA20880D302080B27A00230E
:104FA0002100280006F04DFC2C2021886854208820
:104FB000401C208010201290D048119020882F187B
:104FC000129A1199380006F0EDF9208810302080EF
:104FD000F27A00232100280006F033FC2C202188DF
:104FE00068542088401C208010201090C4480F90E6
:104FF00020882F18109A0F99380006F0D3F92088CE
:1050000010302080327B00232100280006F019FC9C
:105010007D20218868542088401C20802C202188F5
:1050200068542088401C208012260E96B5480D90AA
:1050300020882F180E9A0D99380006F0B3F92088B1
:10504000123020800D200C90AF480B9020882F1834
:105050000C9A0B99380006F0A5F920880D302080B5
:105060002C20218868542088401C208010200A9021
:10507000A648099020882F180A9A0999380006F046
:1050800091F9208810302080A14802680023210077
:10509000280006F0D6FB2220218868542088401C76
:1050A00020802C20218868542088401C20801320D8
:1050B00008909848079020882F18089A0799380078
:1050C00006F070F92088133020809348026800238E
:1050D0002100280006F0B5FB222021886854208892
:1050E000401C20802C20218868542088401C20806F
:1050F00011200690C148059020882F18069A05991E
:10510000380006F04FF9208811302080BC48028812
:1051100000232100280006F094FB222021886854F7
:105120002088401C20802C20218868542088401C26
:1051300020800496B348039020882E18049A03997F
:10514000300006F02FF9208812302080AE48026827
:1051500000232100280006F074FB222021886854D7
:105160002088401C20802C20218868542088401CE6
:1051700020800D200290A548019020882E18029AC8
:105180000199300006F00EF920880D302080A048EB
:10519000028800232100280006F053FB7620218896
:1051A00068542088401C2080222021886854208850
:1051B000401C20802C20218868542088401C20809E
:1051C00009200090934F20882E18009A3900300053
:1051D00006F0E8F82088093020808F480068002118
:1051E00018AA03C2083A18A807F007FD01001AA878
:1051F0002C2206F0BDF81F9888494218D3172100C9
:10520000280006F01EFB2D2620882E542088401CE6
:1052100020801E98092805DA3020218868542088CB
:10522000401C20801E9A521CD3172100280006F033
:1052300008FB20882E542088401C20801D980A28B6
:1052400005DA3020218868542088401C20801D9A6F
:10525000D3172100280006F0F4FA20202188685492
:105260002088401C20801C980A2805DA30202188DC
:1052700068542088401C20801C9AD31721002800E5
:1052800006F0DFFA3A2620882E542088401C208021
:105290001B980A2805DA3020218868542088401C91
:1052A00020801B9AD3172100280006F0CAFA208814
:1052B0002E542088401C20801A980A2805DA3020B5
:1052C000218868542088401C20801A9AD317210016
:1052D000280006F0B6FA2220218868542088401C55
:1052E00020807D20218868542088401C208025B0A3
:1052F000F0BD000050AC010860AC010884A90108B1
:1053000098A90108ACA9010870AC0108C0A901085E
:105310000C000020D4A90108841E0020F8B584B038
:10532000002001006A465171694608710020002181
:1053300002AA03C2083A3A4C3A49200007F073FC2B
:105340000600002E28D03A2006F0DCF9222006F0D4
:10535000D9F902A800900B23222233480188C9B250
:10536000200006F01CFA6946087168460079022898
:1053700012DB2E4D0CCD083D02A803C88B4201D193
:10538000824209D002A803C803C5083D08222900AB
:10539000C020800107F042FE234D254928882018AF
:1053A00007F041FC0700002F0CD03A2006F0AAF9C4
:1053B000222006F0A7F92888205C312802D101209C
:1053C0001C4908701C492888201807F02CFC06008E
:1053D000002E0ED03A2006F095F9222006F092F920
:1053E0002888205C312804D10120144908726946BC
:1053F00048716846407905B0F0BD0000E8A9010891
:105400000E1F0020FCA90108D41D002000AC0108DB
:10541000601D002054B10108080000206C07000046
:105420007C16002078B10108FC1E0020301E0020F0
:1054300080AC0108851F002084B10108A81D002050
:10544000F0B587B000260020002102AA03C2083A66
:10545000BB4DBC49280007F0E6FB019001980028ED
:1054600035D03A2006F04EF9222006F04BF94023C1
:105470002222B5480188C9B2280006F065F9060065
:105480003000C0B2022822DB4020069000200590A8
:10549000AE4F3C00B7340094059A0699009803F08B
:1054A0007BF80098701EF72178543000C0B2401E7F
:1054B0000490A54F388828180090049A009920007D
:1054C00005F070FF38883100C9B2401838809E4C12
:1054D0009F492088281807F0A6FB01900198002812
:1054E00037D03A2006F00EF9222006F00BF94023BF
:1054F00022222188C9B2280006F026F906003000D1
:10550000C0B2022825DB40200690002005908F4F76
:10551000380076300090059A0699009803F03CF820
:105520000098232076217854701EB62178543000DC
:10553000C0B2401E04902088281800907737049A43
:105540000099380005F02EFF20883100C9B24018BC
:105550002080B6492088281807F065FB0700002F37
:105560001ED03A2006F0CEF802A8009006232C2286
:105570002188C9B2280006F012F906003000C0B236
:1055800002280DDB02A803C8002905D1002803D199
:105590000120A749087003E002A803C8A5490880B4
:1055A000A5492088281807F03EFB019001980028A3
:1055B0001BD03A2006F0A6F802A8009006232C2261
:1055C0002188C9B2280006F0EAF806003000C0B20F
:1055D00002280ADB02A803C8002906D301D80A283A
:1055E00003D302A803C85949488094492088281841
:1055F00007F019FB01900198002814D03A2006F01A
:1056000081F802A8009007232C222188C9B2280023
:1056100006F0C5F806003000C0B2022803DB02A87D
:1056200003C88749086087492088281807F0FBFAD3
:105630000700002F18D03A2006F064F82088285C74
:10564000312811D1E12040017F490A88002A03D086
:1056500009883C225143080001217C4A11707C4991
:10566000088000217B4A11707B492088281807F0A8
:10567000DAFA0190019800281AD03A2006F042F890
:1056800002A8009006232C222188C9B2280006F027
:1056900086F806003000C0B2022809DB02A803C861
:1056A000002901D1002803D002A803C86649088058
:1056B0006A492088281807F0B6FA0700002F10D092
:1056C0003A2006F01FF82088285C312809D10120F3
:1056D0000100634A117063490200CA7002000A7136
:1056E000487161492088281807F09DFA01900198B7
:1056F000002812D03A2006F005F82088285C3128CE
:105700000BD103F031F90120564902000A70020062
:105710004A7002008A705549087155492088281836
:1057200007F081FA0700002F17D03A2005F0EAFFB2
:105730002088285C31280DD101204E4908700CE0EA
:105740007C16002090B10108FC1E0020481A0020A1
:1057500090AC010800204749087047492088281864
:1057600007F061FA01900198002831D03A2005F045
:10577000C9FF222005F0C6FF1E2322222188C9B2BC
:10578000280005F0E1FF06003000C0B202281FDB50
:105790001E20069000200590384F0097059A069924
:1057A000009802F0F9FE0098701E3549087030002C
:1057B000C0B2401E0490208828180090049A0099D6
:1057C000380005F0EFFD20883100C9B24018208074
:1057D000CA492088281807F026FA0700002F22D08F
:1057E0003A2005F08FFF222005F08CFF02A80090E0
:1057F000082322222188C9B2280005F0D0FF060024
:105800003000C0B202280EDBBD4C2268002302A883
:1058100003C88B4201D1824205D002A803C8206090
:105820000120C849087007B0F0BD0000A0AC010815
:10583000411B0020421B0020B0AC0108C0AC010895
:105840004C1B0020D0AC0108441B00209A1F0020F4
:105850001E1F0020731F0020E0AC0108F0AC0108FF
:10586000401B0020A81D00209CB10108F41D002051
:1058700000AD0108BD1A0020A8B101089E1A002041
:10588000BC1A0020F0B595B0AF4C00202080AF4D81
:10589000AF49280005F0E4FC7B202188685420886B
:1058A000401C208010200390AA48029020882E18C7
:1058B000039A0299300005F075FD20881030208091
:1058C000A5480CC808382100280005F0BAFF222797
:1058D00020882F542088401C20802C202188685448
:1058E0002088401C2080092001909C48009020883E
:1058F0002E18019A0099300005F054FD20880930D7
:10590000208097480068002108AA03C2083A08A826
:1059100007F073F901000AA82C2205F029FD0F9861
:1059200090494218D3172100280005F08AFF2D2640
:1059300020882E542088401C20800E98092805DAE3
:105940003020218868542088401C20800E9A521CE8
:10595000D3172100280005F074FF20882E542088DA
:10596000401C20800D980A2805DA302021886854D0
:105970002088401C20800D9AD3172100280005F0B4
:1059800060FF2020218868542088401C20800C98CB
:105990000A2805DA3020218868542088401C20809D
:1059A0000C9AD3172100280005F04BFF3A262088D7
:1059B0002E542088401C20800B980A2805DA3020BD
:1059C000218868542088401C20800B9AD31721001E
:1059D000280005F036FF20882E542088401C2080A7
:1059E0000A980A2805DA3020218868542088401C4B
:1059F00020800A9AD3172100280005F022FF208872
:105A00002F542088401C20802C2620882E5420884B
:105A1000401C208008270797BA480690208828183D
:105A20000090079A0699009805F0BCFC0098208821
:105A3000083020800597B448049020882F18059AD4
:105A40000499380005F0AEFC208808302080002042
:105A5000FEF7FDFB694608806846028800232100A6
:105A6000280005F0EEFE20882E542088401C20805F
:105A700006270397A5480290208828180190039ACA
:105A80000299019805F08EFC01982088801D2080E5
:105A90000120FEF7DCFB6946088068460288002387
:105AA0002100280005F0CDFE20882E542088401CBF
:105AB00020800197964F20882E18019A39003000D7
:105AC00005F070FC2088801D20800220FEF7BFFBBF
:105AD0000600320092B200232100280005F0B1FE3A
:105AE0007D20218868542188491C218021886854A0
:105AF0002088401C208015B0F0BD000010AD0108CA
:105B0000481B0020F8B50026824C834D834920882D
:105B1000281807F088F80700002F0FD03A2005F06A
:105B2000F1FD2088285C312808D101207C49020041
:105B30000A7002004A7002008A7006003000C0B28B
:105B4000F2BD0000751F0020061F00200804002081
:105B5000C409000048A90108281E002054B101080A
:105B6000080000206C070000F2B586B00700002690
:105B70003500022200A9891C2800C0B2381804F0A0
:105B8000A1FCAD1C6846007E811E89B22800C0B20F
:105B9000381804F0BDFC69468880684680886946EC
:105BA0004988884200D080E0B44C042221002800BB
:105BB000C0B2381804F086FC2D1D2800C0B2385C35
:105BC00020716D1C0422210008312800C0B2381851
:105BD00004F078FC2D1D6846057010250595684673
:105BE00000783818049020000C300290059A04992F
:105BF000029805F0D7FB0298684600781030694695
:105C00000870042221001C3168460078381804F01E
:105C100059FC68460078001D0100C9B2795C202259
:105C2000A154401C694608700422210024316846B2
:105C30000078381804F046FC68460078001D694674
:105C400008700395684600783818029025002835BA
:105C5000039A0299280005F0A5FB684605781035DF
:105C60009E480068A168884203D3A64800780128AE
:105C700009D12B480121C1703200027532004275F2
:105C80000173B4480660606A9F49884203D29D4808
:105C90000078012809D122480121017132000275E2
:105CA000320042750173AB48066007B0F0BDFEB527
:105CB000070000242500022269462800C0B23818D7
:105CC00004F000FCAD1C2E00A34D2C60042201A9A1
:105CD0003000C0B2381804F0F5FB361D3000C0B2F9
:105CE000395C761C89480A00037BD2B29A4207D1FC
:105CF0006A461288C089C01F824201D1019828607B
:105D0000F7BD0000B4B10108C0B1010808B5010831
:105D100010B50108FC1E00207C1600209CB1010873
:105D2000A81D0020F7B5C4B00024E4438020400043
:105D300001900020009003AD009A0199280002F024
:105D40002BFC0020694688808A2040006844007847
:105D5000032804D1842080006946888009E08A20D5
:105D6000400068440078042803D1FA2040006946C6
:105D700088806846808880214901414346980818F8
:105D800002904498000A6946C8804498C0B26946A7
:105D90004880002069460880684600886946C988AE
:105DA000884237D280256D0028000200029903A89E
:105DB00006F0DEFF322005F0A8FA002630000100D0
:105DC00089B2A9421ADA03A9020092B2895C3200B0
:105DD0001300DBB2082B0FDA0F00FFB267403B0065
:105DE000DB07DB0F6408002B02D02700814C7C40CE
:105DF000C9B24908521CEBE7401CE0E70298401981
:105E000002907D487D49086068460088401C6946CC
:105E10000880C1E76846408800282CD06846428840
:105E2000029903A806F0A4FF9620400005F06DFA41
:105E30000025280001006A46528889B291421AD290
:105E400003A9020092B2895C2A001300DBB2082B7E
:105E50000FDA0E00F6B266403300DB07DB0F640892
:105E6000002B02D02600634C7440C9B24908521C72
:105E7000EBE7401CDEE7E04347B0F0BDD41B002059
:105E800080B50C21944807F019FA05F0D2FA93482E
:105E9000002141810A0042710A0082710A000271E8
:105EA0000A00C2711948C1728D480078012803D1D7
:105EB0000221022001F028FD06208A49088001BD48
:105EC00000B50288012A07D1844A002313700123F8
:105ED00053700522BE4B1A8000BD00000400002054
:105EE00080B5684680490A7802700121684607F04B
:105EF000E5F9C82005F009FA0321B6A007F0DEF99C
:105F000001BD0000401B002027042500A81D002023
:105F100010B50288012A0CD1704A00231370137245
:105F2000D478002C02D10223537002E0D47854704C
:105F3000D37010BD80B50D21A74807F0BFF901BD92
:105F400000B50288012A04D1644A00231370032398
:105F5000537000BD741E00200C1C002080B506F09C
:105F60006BFB01BD10B50288012A07D15B4A0023F3
:105F700013700424547003249470137210BD80B500
:105F80000C21964807F09AF901BD10B50288012A44
:105F900007D1524A002313700524547004249470CE
:105FA000137210BD80B509218D4807F087F901BD36
:105FB00010B50288012A0BD1484A00231370062429
:105FC00054700524947013720222464B1A8009E023
:105FD0000288022A06D1414A002313700524547016
:105FE0009470137210BD80B50B217E4807F066F9DE
:105FF00001BD00002083B8EDAAAA000000300040D7
:10600000F3B583B0039800883F2863D100252C00A6
:10601000280075490988891E0200D2B2914208DB26
:1060200072490200D2B2895C2E2900D1641C401C46
:10603000EFE72000C0B203284AD1002000216A46C1
:1060400003C2083A6A48058069462E2005F0A2FA84
:10605000684E32680023684603C80906070A3943B8
:10606000000680185941306069462E2005F092FAEA
:1060700032680023684603C80904070C394300044A
:1060800080185941306069462E2005F083FA326845
:106090000023684603C80902070E3943000280182E
:1060A0005941306069460D2005F074FA326868463F
:1060B00003C810183060094807214170062181701B
:1060C0002900017201204C49C8720220054908804C
:1060D0000248057005B0F0BD20AD0108041E002087
:1060E000A81F0020000400206AB6010810B5002196
:1060F0000800414A13000D330B241C705479012C05
:1061000004D105221A700122100051E0D478012C2C
:1061100004D103221A700122100049E01479012CE5
:1061200004D104221A700122100041E09479012C5C
:1061300008D1BA4A1278002A3AD006221A700122EF
:10614000100035E0D479012C04D107221A70012205
:1061500010002DE0147A012C04D108221A700122BB
:10616000100025E0547A012C04D109221A70012272
:1061700010001DE0947A012C04D10A221A70012229
:10618000100015E01478012C03D1197001221000C1
:106190000EE05478012C04D1012214001C70100070
:1061A00006E09278012A03D102221A70012210001F
:1061B0000200D2B2012A03D10822994B5A7002E0A0
:1061C0001422974B5A70964A1170117210BD00003C
:1061D0000004002041540D0030AD010840AD01081D
:1061E000CCB10108D8B10108FE1E00207C160020A9
:1061F000FC1E00209C1E0020A81D002000BF704730
:10620000F0B5A1B0802100252A0001AC200002F0E9
:10621000C3F92800694608800C2069460880684652
:106220000488804E01AF22003100380005F0BAF832
:106230007D490878002800D1DBE00878FF2800D1EC
:10624000D7E07A48427B032A05D0427B042A02D059
:10625000427B052A49D10722097854180E34241D9F
:10626000417B052901D10D3412E0417B032906D180
:10627000007B0A2801DB11340AE0103408E0417B7E
:10628000042905D1007B0A2801DB103400E00F341B
:10629000220092B20023694601A805F0D2FA01A8B3
:1062A0002C216A461288815469460988491C6A462D
:1062B000118033216A461288815469460988491C35
:1062C0006A46118030216A461288815469460988DD
:1062D000491C6A4611800D216A461288815468461D
:1062E0000088401C6946088083E0427B002A05D074
:1062F000427B012A02D0427B022A3ED10722097842
:1063000054180E34A41D1034417B002901D10834E7
:1063100006E0417B012902D0407B022800D11334E2
:10632000220092B20023694601A805F08AFA01A86A
:106330002C216A461288815469460988491C6A469C
:10634000118033216A461288815469460988491CA4
:106350006A46118030216A4612888154694609884C
:10636000491C6A4611800D216A461288815468468C
:106370000088401C694608803BE0417B06290BD021
:10638000417B072908D0417B082905D0417B092999
:1063900002D0407B0A282CD12224220092B2002372
:1063A000694601A805F04DFA01A82C216A46128819
:1063B000815469460988491C6A46118033216A461E
:1063C0001288815469460988491C6A461180302127
:1063D0006A461288815469460988491C6A461180B8
:1063E0000D216A461288815468460088401C69461F
:1063F00008806846018801A806F060FF21B0F0BD62
:1064000010B502882C2A07D1054A002313700924ED
:10641000547008249470137210BD0000861F002071
:10642000041E002050AD0108FE1A0020A81D002007
:10643000F0B5ADB0A4210024220004AD280002F084
:10644000ABF868460480E04D2E00B6363078002860
:1064500000D1FAE13078FF2800D1F6E1DB4C607B17
:10646000032806D0607B042803D0607B052800D079
:1064700019E1072069460880684600880290D448E0
:10648000019004AF029A0199380004F08BFF307834
:10649000002814D03078FF2811D03078019077355B
:1064A00004A8694609884718019A2900380004F0B1
:1064B00079FF6846008831784018694608800E20C8
:1064C0000390C448029004A8694609884518039AB5
:1064D0000299280004F066FF684600880E3069467D
:1064E000088004250195DC4E04A8694609884718F0
:1064F000019A3100380004F055FF68460088001DFD
:1065000069460880607B05282AD10824D34E04A858
:1065100069460988471822003100380004F042FF1C
:1065200068460088083069460880312004A96A4618
:106530001288885468460088401C69460880019586
:10654000C74D04A8694609884718019A29003800F0
:1065500004F028FF68460088001D6946088074E141
:10656000607B03283DD109200190BE4E04A86946F6
:1065700009884718019A3100380004F013FF684673
:10658000008809306946088004A831216A461288CB
:10659000815469460988491C6A4611805F216A4610
:1065A0001288815469460988491C6A461180217BFA
:1065B00030316A461288815468460088401C69461A
:1065C0000880A74C04A86946098847182A002100BA
:1065D000380004F0E7FE68460088001D6946088020
:1065E00033E1607B042800D02FE108200190AE4FFA
:1065F00004A8694609884618019A3900300004F059
:10660000D1FE6846008808306946088004AE312013
:1066100069460988705468460088401C69460880AD
:106620005F2069460988705468460088401C6946A6
:106630000880207B0A280ADA207B303069460988E6
:10664000705468460088401C694608801BE0207B27
:106650000A2106F078FA07003800303069460988C8
:10666000705468460088401C69460880207B0A21D7
:1066700006F069FA3031684600883154684600886F
:10668000401C69460880764C04A86946098846186B
:106690002A002100300004F085FE68460088001DB5
:1066A00069460880D1E0607B002806D0607B012825
:1066B00003D0607B022800D0A8E00720694608804C
:1066C0006846008802904248019004AF029A0199FE
:1066D000380004F067FE3078002814D03078FF28A6
:1066E00011D030780190773504A869460988471899
:1066F000019A2900380004F055FE68460088317878
:106700004018694608800E2002903248019004A883
:10671000694609884518029A0199280004F042FE4A
:10672000684600880E30694608800627AE4E04A8E9
:106730006946098845183A003100280004F032FE05
:1067400068460088801D69460880A84D0CCD083D2C
:10675000694604A805F075F82F2004A96A46128836
:10676000885468460088401C69460880607B002881
:1067700010D108249E4D04A86946098846182200B5
:106780002900300004F00EFE684600880830694693
:1067900008805AE0607B01281ED10CCD083D694677
:1067A00004A805F04EF80424924D04A8694609880F
:1067B000461822002900300004F0F4FD68460088E5
:1067C000001D6946088040E0481A0020A81D0020EE
:1067D00018B5010860AD0108607B022835D10CCDE9
:1067E000083D694604A805F02CF80424824D04A84D
:1067F00069460988461822002900300004F0D2FDBD
:1068000068460088001D694608801EE0607B0628F7
:106810000BD0607B072808D0607B082805D0607B00
:10682000092802D0607B0A280FD12224B54D04A884
:1068300069460988461822002900300004F0B2FD9C
:10684000684600882230694608806846018804A8A6
:1068500006F034FD2DB0F0BD20B50108E4B101080B
:1068600028B50108F0B1010810B50288012A1AD133
:10687000A54A00231370092494701372B64B5C7BF5
:10688000062C0BD05C7B072C08D05C7B082C05D039
:106890005C7B092C02D05B7B0A2B02D10A2353704C
:1068A00001E00D23537010BDFCB10108F0B58FB0AD
:1068B00032210024220002AD280001F06DFE68465E
:1068C0000480A54C607B062802D1FDF711FD1EE077
:1068D000607B07280AD1FEF797F8A0480068A04916
:1068E0000968884213D20120A07210E0607B08285A
:1068F00002D1FEF7F1F90AE0607B092802D1FEF728
:106900004FFA04E0607B0A2801D1FEF7BBFF0D209F
:1069100069460880684600880190924E02AC019A50
:106920003100200004F03EFD8F48028800236946B4
:1069300002A804F086FF0725B24C02A86946098820
:1069400047182A002100380004F02CFD6846008812
:10695000C01D694608806846018802A806F0AEFCA2
:106960000FB0F0BD00B502882C2A06D1664A00237C
:1069700013700B2353700823937000BD80B57A48C1
:106980000188A14806F09AFC01BD10B50288012AD1
:1069900007D15D4A002313700C24547008249470AE
:1069A000137210BDF8B58EB032210024220001AD63
:1069B000280001F0F1FD6846048010242600B6B2DC
:1069C000924D01AF32002900380004F0EBFC04F0D6
:1069D00030FD210089B201A806F070FC02208C492C
:1069E00008800FB0F0BD000030B50108281E00205F
:1069F00008B2010838B5010840B50108FEB5060027
:106A00000F0030882C2862D1FA20400004F07DFC71
:106A100000243D4821000170072141700821817048
:106A2000210001724C4D687B062809D179497A48CA
:106A300006F0F9F800285DD0AC714621318059E0AC
:106A4000687B07280ED120006946888001A804F0E1
:106A50006DFFFEF763FC012070490870EC71472060
:106A6000308047E0687B08280FD1200069464880C5
:106A700000A8801C04F05AFFFEF7E2FC01206749E1
:106A800008702C724720308034E0687B09280CD1D4
:106A90006049614806F0C7F800282BD001215F4A01
:106AA00011706C724721318024E0687B0A2821D163
:106AB000200069460880684604F038FFFFF722F896
:106AC000012056490870AC724720308012E03088AF
:106AD00008280FD13800524900B288420AD100205C
:106AE000094902000A7014224A700C228A70087246
:106AF00001203080F7BD80B51121B54806F0DEFBDE
:106B000001BD000004A40108041E002010B5028885
:106B1000012A08D1AF4A002313700E2454700D24AB
:106B20009470137211E00288082A0ED10A00AA4B51
:106B300012B29A4209D101220280A64A00231370A0
:106B40000E2454700D249470137210BD80B50F2163
:106B5000A24806F0B3FB01BDA81D00204C1B00207D
:106B6000D41D002070AD0108061F002010B502885A
:106B7000012A08D1974A002313700F2454700E2461
:106B8000947013723DE00288082A3AD101220280F3
:106B9000934A537B002B05D0537B012B02D0537BB0
:106BA000022B14D1537B002B02D1002313700AE077
:106BB000537B012B02D10023537004E0537B022B43
:106BC00001D1002393700722824B5A7013E0537B4C
:106BD000032B02D10023D3700AE0537B042B02D194
:106BE0000023137104E0537B052B01D10023537163
:106BF0000722784B5A70774A002313700E24947042
:106C0000137210BD48B501080804002010AA01083D
:106C10000004002050B5010820110020571F00205B
:106C2000DC0E000070B58EB032210024220001ADD0
:106C3000280001F0B1FC68460480102069460880F5
:106C400068460488674D01AE22002900300004F038
:106C5000A9FB6348417B032905D0417B042902D06D
:106C6000417B05294BD1417B052910D10924C24D17
:106C700001A869460988461822002900300004F05E
:106C800091FB6846008809306946088026E0417B10
:106C9000032910D10924B94D01A86946098846186D
:106CA00022002900300004F07DFB6846008809308E
:106CB0006946088012E0407B04280FD10824B04DBB
:106CC00001A869460988461822002900300004F00E
:106CD00069FB684600880830694608800624A94D8B
:106CE00001A869460988461822002900300004F0EE
:106CF00059FB68460088801D6946088061E0417B39
:106D0000002905D0417B012902D0417B022958D1BD
:106D1000417B002910D109249B4D01A869460988AF
:106D2000461822002900300004F03CFB6846008829
:106D300009306946088034E0417B012917D1934826
:106D40000CC80838694601A804F07BFD0524904D65
:106D500001A869460988461822002900300004F07D
:106D600021FB68460088401D6946088019E0407B89
:106D7000022816D185480CC80838694601A804F0D5
:106D800060FD0524834D01A8694609884618220044
:106D90002900300004F006FB68460088401D694663
:106DA000088006247C4D01A86946098846182200FF
:106DB0002900300004F0F6FA68460088801D694614
:106DC00008806846018801A806F078FA0EB070BD08
:106DD00024AA0108041E0020AD0F000080AD0108A8
:106DE000A81D002038AA0108F3B585B005980088D1
:106DF000282800D097E00020002102AA03C2083A08
:106E00000024684604806846448068468480634D58
:106E100063482988405C010049B22D2905D12988A1
:106E2000491C29800026F64300E0012602A92C20F7
:106E300004F0B0FB02A803C8320052B2D31706F028
:106E400087FA02AA03C2083A02A803C86946088062
:106E50006846008800B2B049C881514F2888385C24
:106E6000010049B22D2905D12988491C2980002615
:106E7000F64300E0012602A92C2004F08BFB02A8B7
:106E800003C8320052B2D31706F062FA02AA03C254
:106E9000083A02A803C8694648802888385C01007F
:106EA00049B22D2905D12988491C29800025ED43A7
:106EB00000E0012502A90D2004F06CFB02A803C824
:106EC0002A0052B2D31706F043FA02AA03C2083AC4
:106ED00002A803C8010009B2002913D169464988F4
:106EE00009B26A46128812B291420BD18A496A46A7
:106EF000128812B2CA811022B84B5A704A7D521CB5
:106F00004A7507E00100854A09B2914202D10F217A
:106F1000B24A5170B14922000A700F228A702200D1
:106F2000CA700C7226E005980088082822D16846AD
:106F3000008B00B2AA4988420AD101200599088035
:106F4000A649002002000A700F224A708A70087257
:106F50006846008B00B2A34988420BD101200599F5
:106F600008809E49002002000A700E224A700F22FB
:106F70008A70087207B0F0BD14B2010820B201088F
:106F80002CB2010858B5010838B20108281E0020AB
:106F900060B5010868B5010870B50108FC1E002045
:106FA0007C16002070B58EB032210024220001AD85
:106FB000280001F0F1FA684604800F206946088035
:106FC00068460488AE4D01AE22002900300004F06E
:106FD000E9F95148417B032905D0417B042902D0BE
:106FE000417B05293BD1417B052910D10C24A54DBE
:106FF00001A869460988461822002900300004F0DB
:10700000D1F9684600880C30694608807CE0417BF5
:10701000032910D10C249C4D01A869460988461803
:1070200022002900300004F0BDF9684600880C30C9
:107030006946088068E0407B042865D10B24934DA5
:1070400001A869460988461822002900300004F08A
:10705000A9F9684600880B306946088054E0417BF6
:10706000002905D0417B012902D0417B02294BD167
:107070000221B24A1160417B002910D10C24B04D8D
:1070800001A869460988461822002900300004F04A
:1070900089F9684600880C306946088034E0417BF5
:1070A000012917D1A7480CC80838694601A804F07F
:1070B000C8FB0824A44D01A8694609884618220087
:1070C0002900300004F06EF96846008808306946EF
:1070D000088019E0407B022816D19A480CC808386D
:1070E000694601A804F0ADFB0824984D01A8694643
:1070F0000988461822002900300004F053F9684638
:1071000000880830694608806846018801A806F0B2
:10711000D5F80EB070BD0000A81D0020B10F000012
:107120007CB505000E0028883C2841D100200021B4
:107130006A4603C2083A864986480A88805C02008B
:1071400052B22D2A05D10A88521C0A800024E44339
:1071500000E0012469460D2004F01CFA01283BD10F
:10716000684603C8220052B2D31706F0F1F86A4607
:1071700003C2083A684603C800290EDB01DC012877
:107180000BD3684603C8744908610020734908603E
:10719000124908721120C87002E010200F49C8700F
:1071A0000E4800210170152141701021817013E0FB
:1071B0002888082810D13000694900B288420BD1D4
:1071C000012028800549002002000A7010221300C7
:1071D0004B708A700872FFE773BD0000041E002028
:1071E000B50E0000DC0E000070B58EB03221002418
:1071F000220001AD280001F0CFF9684604800A2082
:107200006946088068460688564D01AC3200290060
:10721000200004F0C7F8504802690023694601A81D
:1072200004F00FFB01AC2C206946098860546846C5
:107230000088401C69460880484802680023694667
:1072400001A804F0FEFA0D206946098860546846DA
:107250000088401C694608806846018801A806F03D
:107260002DF80EB070BD10B50288012A07D13E4A34
:10727000002313701224547011249470137210BDE3
:1072800090AD0108A0AD0108B0AD010844B20108FD
:10729000F0B58FB032210024220002AD280001F0A9
:1072A0007BF968460480314D2B4CE0892B490968F5
:1072B000401A28602868012807DB2868FF21F6317A
:1072C000884202DBFA20400028600A2069460880D4
:1072D000684600880190264E02AF019A31003800BE
:1072E00004F060F822690023694602A804F0A9FAB4
:1072F00002AC2C2069460988605468460088401C0E
:10730000694608802A68D317694602A804F099FAEA
:107310000D2069460988605468460088401C69460B
:10732000088004F086F86846018802A805F0C6FFC8
:107330000220D04908800FB0F0BD000028010020D5
:10734000C0AD0108281E002050B201085CB201083F
:10735000FC1E00207C160020A81D00206C1E0020B2
:10736000AA0F000068B20108041E0020701E002051
:1073700074B20108F3B58FB00F9800882C2800D0A4
:1073800076E10020002104AA03C2083ABA48018825
:10739000491E0180B9480188491C018004A90D20BB
:1073A00004F0F8F8012800D05BE1B54D04A803C84B
:1073B0002A68D317994200D053E1904200D050E19F
:1073C000B04C607B002805D0607B012802D0607B38
:1073D000022833D1C44B627B2868010089B2C348BC
:1073E000C34E3688801901F038FAC24E30682968D9
:1073F0004018306004F01DF8E0893168401A002818
:1074000018D1617BE08901F09CFA607B002802D1F1
:10741000002020700AE0607B012802D1002060700B
:1074200004E0607B022801D10020A0701320CD4928
:10743000487016E11120CB49487012E1607B0528A5
:1074400012D128680100C9B2A848A94A1288801838
:10745000FEF78AFB00200100617560710120207336
:107460001320C0494870FCE0607B032803D0607B98
:10747000042800D0F5E09F48006800280FD19C4EFA
:107480009A4831884018FEF712FC3088C01D3080C1
:1074900098480168C91D01602868C01F2860B94B61
:1074A000627B2868010089B29048914E3688801925
:1074B00001F0D3F98F480068296840188D490860A9
:1074C00003F0B7FFE0898B490968401A002800D013
:1074D000C4E000250195280069460870207D042835
:1074E0001DDA26001436207D401C3070A548006847
:1074F000E189C91F421A617BE089C01FFEF712FCB7
:107500000190FA20400003F000FF01989E49896B2A
:107510008842E3D10120694608702800307068462F
:107520000078012879D128006075607B03282ED16E
:10753000207B401C2073944E3079217B884200D3FD
:1075400086E02800E07010212A000AAF380001F020
:1075500023F8326803210AA803F05AF869464880E4
:107560006846408800B200280CD1029510223100F4
:107570000C310AA805F006FF0700002F02D1306881
:1075800005F010FF012020737E48056060E0607BFD
:1075900004285DD1207B401C20737B4F2020385C69
:1075A000217B884254D22800207110212A0006AE87
:1075B000300000F0F1FFFA69042106A803F028F872
:1075C000694648806846408800B2002820D12E00D5
:1075D00010223900283106A805F0D4FE0290029846
:1075E000002815D1694E00220421F86903F098F8AB
:1075F000B082F869B0610127380030700220F07065
:10760000F06930622800707001F075F8AA480770C0
:10761000012020735B4805601AE028002075594856
:107620000168E289D21F891A0160617D03290FDB9D
:10763000617B032902D12900E17004E0617B042908
:1076400001D1290021712900617501212173056093
:107650002848056013204349487002E01120414941
:10766000487000203F4902000A7012228A70087296
:1076700011B0F0BD00040020FE1E0020FC1E002002
:10768000701E0020A81D002070B58EB0322100248D
:10769000220001AD280000F07FFF684604800B2027
:1076A0006946088068460588844C01AE2A0021009E
:1076B000300003F077FE824802690023694601A882
:1076C00004F0BFF80D2001A96A4612888854684664
:1076D0000088401C694608806846018801A805F0BA
:1076E000EDFD0EB070BD000028010020201100202B
:1076F0000A1F00206C1E002010B50288012A07D145
:10770000704A00231370072454701324947013726A
:1077100010BD80B50B216C4805F0D0FD01BD70B5E2
:107720000288342A1CD10F4C00222270631C0525CC
:107730001D701425A5701B25E5702272604DEA723C
:10774000E271624C2270624C2270624D2E78012EE2
:1077500004D12A70012215001D7022704722028078
:1077600070BD0000041E002000BF704710B50288E5
:10777000012A05D1534A00231370D4785470D37072
:1077800010BD0000741E0020D41B0020A41C00208B
:10779000F8B506000420694608804F480021405E85
:1077A000FA2800D082E0474C2078002802D0012837
:1077B00034D07EE020000830217A491C017047490E
:1077C0003200D2B2895C227A914215D23100C9B21C
:1077D000052909D10021424A11700121414A117045
:1077E000E121C900404A118040493200D2B2895C8F
:1077F0006170002101705CE0012020703C486178DC
:10780000405CFA21890048433A4908603A4831000F
:10781000C9B204225143405880474AE0002528005D
:107820006946488000A8801C04F080F869460880FA
:107830003048006800280BD168460088042807D12A
:1078400025702E483100C9B2405C6070002032E0E3
:1078500068460088202803D068460088042800D1A4
:1078600027E06946498809B26846254A3300DBB2F9
:1078700004277B43D258904768460088082814D1D3
:10788000280020706846408800B20A2808D10220EB
:10789000607028002071280060811A48057004E09B
:1078A00016483100C9B2405C607002E003206946AE
:1078B000088068460088F2BD5A1F002080B2010887
:1078C000A81D0020041E00208CB20108591F0020B2
:1078D000571F00205B1F00200004002080A7010824
:1078E000561F0020921F0020181F002098A7010893
:1078F00068A70108641E00202C010020B0A7010821
:10790000840100207E1F002070B50200D2B2002A40
:1079100000D097E0AF4A13780C00E4B2A34200D144
:10792000C6E111700022AC4B1A700B00DBB2002BC9
:107930000FD0022B1FD014D3042B2FD025D3062B0E
:107940003ED034D3082B4DD043D30A2B70D066D30E
:10795000AEE1A24B1A70A24B1A700222A14B1A6020
:10796000A6E17D229D4B1A7001229D4B1A700222C6
:107970009D4B1A609CE10C22984B1A700122984B87
:107980001A700222984B1A6092E10623934C2370DE
:10799000934B1A700222934B1A6089E119238F4C82
:1079A00023708F4B1A7002228E4B1A6080E14B239A
:1079B0008A4C23708A4B1A7002228A4B1A6077E134
:1079C0007D23864C2370864B1A700222854B1A60E9
:1079D0006EE102231C00814D2C70814C2270814A83
:1079E000136065E106247D4B1C707D4B1A700223E9
:1079F0007C4D2B60AF4B1970AF4B1C7001231D00E9
:107A0000AE4E3570784D2B60AD4B1970AD4B1C7080
:107A1000AD4B1A7080221202AC4B1A6048E102236F
:107A20001C006E4D2C706E4C22706E4A13603FE14C
:107A30007D226A4B1A700122694B1A7002226A4B2E
:107A40001A6035E10200D2B2012A7DD1994A137839
:107A50000C00E4B2A34200D12AE1117000229C4B39
:107A60001A700B00DBB2002B12D0012B18D0022BA6
:107A700020D0032B28D0042B2FD0052B36D0062B5B
:107A80003DD0072B44D0092B4BD00A2B52D00FE10D
:107A9000894B1A70894B1A700122524B1A6007E108
:107AA0007D22854B1A7001221300844C23704E4BAB
:107AB0001A60FDE00C22804B1A70012213007F4CEB
:107AC0002370494B1A60F3E006237B4C23707B4BF9
:107AD0001A700122434B1A60EAE01923764C237096
:107AE000764B1A7001223F4B1A60E1E04B23724C37
:107AF0002370724B1A7001223A4B1A60D8E07D2332
:107B00006D4C23706D4B1A700122364B1A60CFE01A
:107B10000223694C2370694B1A700122314B1A60A1
:107B2000C6E00223644C2370644B1A7001222D4B73
:107B30001A60BDE07D22604B1A70012213005F4C79
:107B40002370294B1A60B3E00200D2B2022A00D09F
:107B5000AEE05B4A13780C00E4B2A34200D1A7E088
:107B60005C4B1B78012B10D15B4B1B78002B04D195
:107B700011700022594B1A700BE07D231370012203
:107B800011000022554B1A7003E011700022534B74
:107B90001A700A00D2B2002A12D0012A26D0022A74
:107BA0002FD0032A38D0042A41D0052A4AD0062AE9
:107BB00053D0072A5CD0092A65D00A2A6ED077E014
:107BC0000022404B1A70404B1A70802212023F4B29
:107BD0001A606DE05F1F0020621F0020651F0020FB
:107BE000681F0020280C0050180C00507D22354BD7
:107BF0001A700122344B1A7080221202384B1A601C
:107C000056E00C222F4B1A7001222F4B1A70802243
:107C10001202334B1A604BE006222A4B1A700022E4
:107C2000294B1A7080221202284B1A6040E0192258
:107C3000244B1A700022244B1A7080221202234B0C
:107C40001A6035E04B221F4B1A7000221E4B1A702F
:107C5000802212021D4B1A602AE07D22194B1A70F5
:107C60000022194B1A7080221202184B1A601FE072
:107C70000222144B1A700022134B1A708022120237
:107C8000124B1A6014E002220E4B1A7000220E4BA7
:107C90001A70802212020D4B1A6009E07D22094BF6
:107CA0001A700122084B1A70802212020C4B1A60C3
:107CB00070BD0000601F0020661F0020691F0020AB
:107CC0005E1F0020641F0020671F00202800005056
:107CD000631F0020A81F00208E1F0020611F0020AE
:107CE0001800005038B5B1480178012908D1B048D2
:107CF000007800282BD100210120FFF705FE26E0A7
:107D00000178022910D100210020FFF7FDFD00219C
:107D10000220FFF7F9FDA6480078002817D10521B9
:107D20000120FFF7F1FD12E0007803280FD10021B8
:107D30000020FFF7E9FD00210220FFF7E5FD9C4848
:107D40000078002803D101210120FFF7DDFD9848CC
:107D50000078012803D109210120FFF7D5FDB4489F
:107D60000078002814D0022826D01BD304285DD028
:107D70003DD3062800D197E077D3082800D1DCE076
:107D800000D2B0E00A2800D11AE100D2F4E035E1D7
:107D9000A8480178012904D1002101700220A649D8
:107DA00008602BE1A3480178002904D1012101706A
:107DB0000220A249086021E1A1480178491C017014
:107DC0000178A04A1278914210D30021017099489D
:107DD000017801224A4002700078012803D1022074
:107DE0009649086002E002209349086006E1944841
:107DF0000178491C0170934902780B789A4214D398
:107E0000002202708B4802780123534003700078EF
:107E1000012805D1022002000A708849086004E0A8
:107E200006200870022084490860E7E08448017851
:107E3000491C0170834902780B789A4214D30022BE
:107E400002707C48027801235340037000780128B7
:107E500005D1022002000A707849086004E0192068
:107E60000870022074490860C8E075480178491C10
:107E70000170744902780B789A4214D30022027080
:107E80006C4802780123534003700078012805D123
:107E9000022002000A706949086004E04B20087063
:107EA000022065490860A9E065480178491C017015
:107EB000644902780B789A4214D3002202705D481C
:107EC00002780123534003700078012805D1022075
:107ED00002000A705949086004E07D200870022001
:107EE000554908608AE056480178491C0170554997
:107EF00002780B789A421FD3002202704D48037813
:107F000001245C4004700078012809D1022002009D
:107F10000A704A490860B4480178491C01700BE0B6
:107F2000022003000B70444B1860AF480378022B0B
:107F300002D102701920087060E041480178491CA4
:107F40000170404902780B789A4214D300220270E3
:107F5000384802780123534003700078012805D186
:107F60000620087002203549086004E006200870E9
:107F700002203149086041E031480178491C017014
:107F8000304902780B789A4219D3002202702948AE
:107F90000278012353400370007801280AD102209F
:107FA00002000A702549086009E000BFA81F0020F0
:107FB000A51F0020022002000A701F4908601DE072
:107FC0001F480178491C01701E4902780B789A42BB
:107FD00014D3002202701748027801235340037023
:107FE0000078012805D17D2008700220134908601F
:107FF00004E0022002000A700F490860B5480078CA
:10800000002821D0022833D028D3042868D049D3AF
:10801000062800D1A0E000D280E0082800D1E5E0E9
:1080200000D2B7E00A2800D11CE100D2FCE036E122
:108030005F1F0020681F0020280C0050180C005003
:10804000621F0020651F0020A3480178012904D188
:10805000002101700120A149086020E19E480178BB
:10806000002904D101210A0002709D48016016E137
:108070009C480178491C017001789B4A1278914212
:108080000FD3002101700121934802780B00534067
:1080900003700078012802D19148016001E08F4807
:1080A0000160FCE08F480178491C01708E4A01781C
:1080B0001378994213D30021017001218648037877
:1080C0000C005C4004700078012804D1022010707C
:1080D0008348016003E00620107080480160DEE004
:1080E00080480178491C01707F4A017813789942D1
:1080F00013D3002101700121774803780C005C4004
:1081000004700078012804D10220107074480160C6
:1081100003E01920107071480160C0E071480178D7
:10812000491C0170704A01781378994213D30021D9
:1081300001700121684803780C005C4004700078ED
:10814000012804D1022010706548016003E04B2033
:10815000107062480160A2E062480178491C017019
:10816000614A01781378994213D3002101700121EB
:10817000594803780C005C4004700078012804D151
:10818000022010705648016003E07D2010705348B3
:10819000016084E053490878401C0870524B08780D
:1081A0001A7890421ED30020087001224A490C78A8
:1081B000150065400D700978012908D1022018705A
:1081C0004748026049480178491C01700AE00221D1
:1081D000197042490A6045490A78022A02D108709A
:1081E000192018705BE000BF6B1F00203D4801782C
:1081F000491C01703C4A01781378994213D300213D
:1082000001700121344803780C005C400470007850
:10821000012804D1062010703148016003E00620D7
:1082200010702E4801603AE02E480178491C017018
:108230002D4A01781378994213D30021017001214E
:10824000254803780C005C4004700078012804D1B4
:10825000022010702248016003E0022010701F48C5
:1082600001601CE01F480178491C01701E4A01781A
:108270001378994213D30021017001211648037825
:108280000C005C4004700078012804D17D2010703F
:108290001348016003E00220107010480160B748E5
:1082A0000078002824D0022838D02CD3042873D09A
:1082B00051D3062800D1B1E000D28EE0082800D1C9
:1082C000F9E000D2CBE00A2800D136E100D213E178
:1082D00053E100BF601F0020691F0020280C0050E0
:1082E000180C0050631F0020661F00206C1F002028
:1082F000A3480178012905D10021017080200002E6
:10830000A049086039E19E480178002905D1012182
:108310000170802000029C4908602EE19B48017892
:10832000491C017001789A4A1278914212D30021B7
:1083300001709348017801224A40027000780128B8
:1083400004D1802000029049086003E080200002F0
:108350008C49086011E18D480178491C01708C49F5
:1083600002780B789A4216D3002202708448027871
:108370000123534003700078012806D102200870C1
:10838000802000028049086005E0062008708020F7
:1083900000027C490860F0E07C480178491C0170CB
:1083A0007B4902780B789A4216D3002202707448F7
:1083B00002780123534003700078012806D102207F
:1083C0000870802000027049086005E019200870DC
:1083D000802000026B490860CFE06C480178491C9E
:1083E00001706B4902780B789A4216D30022027012
:1083F000634802780123534003700078012806D1B6
:1084000002200870802000025F49086005E04B20D0
:108410000870802000025B490860AEE05B4801788C
:10842000491C01705A4902780B789A4216D30022EF
:1084300002705348027801235340037000780128EA
:1084400006D102200870802000024F49086005E034
:108450007D200870802000024A4908608DE04B4969
:108460000878401C08704A4A08781378984221D34B
:108470000020087042490B7801245C400C70097898
:1084800001290AD102201070802000023E490860B4
:1084900040480178491C01700CE0022111708021D4
:1084A0000902384B19603B490B78022B02D1087046
:1084B0001920107061E035480178491C0170344979
:1084C00002780B789A4216D3002202702C48027868
:1084D0000123534003700078012806D1062008705C
:1084E000802000022849086005E0062008708020EE
:1084F00000022449086040E024480178491C0170CA
:10850000234902780B789A4216D3002202701C4845
:1085100002780123534003700078012806D102201D
:108520000870802000021849086005E002200870E9
:1085300080200002134908601FE014480178491C9C
:108540000170134902780B789A4216D30022027008
:108550000B4802780123534003700078012806D1AC
:108560007D200870802000020749086005E0022095
:108570000870802000020349086031BD5E1F0020A2
:10858000671F00202800005018000050611F0020C5
:10859000641F00206A1F00201206130A1A43130CDE
:1085A0001A4300BF094205D0830705D00270401C62
:1085B000491EF9D1704700001300103906D330B4BA
:1085C0001400150010393CC0FCD230BC490700D360
:1085D0000CC000D504C0890002D30280801C002991
:1085E00000D502707047FEE780B504F033FB6C499C
:1085F000088004F08AFB04F09AFB01BD80B5862256
:108600005200822149005E4804F0FAFB01BD10B51A
:108610005B4C8622520082214903200004F0A8FB13
:108620008420400020585F49884204D000F03AFA84
:10863000FFF7E4FF01E000F0CAFA10BD1CB500200E
:1086400000216A4603C2083A4E4C002020700822DE
:1086500069468020400104F00FFD684603C80029E8
:1086600001D100281BD0684603C847A20CCA994212
:1086700005D1904203D101204B4908700FE06846B4
:1086800003C805F010F90F2805D1684603C8404A11
:1086900003C2083A03E0012020704349087013BD6B
:1086A0003EB500240025684630C00838002039490E
:1086B000887008226946C020800104F0DDFC68460D
:1086C00003C8002905D1002803D1384830C0083834
:1086D00010E0684603C82CA20CCA994205D190420A
:1086E00003D1324830C0083804E0684603C82F4A36
:1086F00003C2083A37BD80B52822FF21891D2748CB
:1087000004F07EFB01BD38B5234D244C28222900FE
:10871000200004F02DFBE069002804D0E06900216E
:10872000C943884203D12248E061FFF7E4FF31BD2D
:1087300038B505000020694608802800C0B28321B2
:108740004900441880204001444302222100684629
:1087500004F00EFB6846008832BDF8B506000D0037
:1087600014003000C0B28021490148431149471824
:10877000220092B23900280004F0FAFAF1BD00009C
:10878000481A0020F61D0020FFFFFFFFFFFFFFFF3C
:10879000281E0020F41D002000501000A41C002002
:1087A000281F0020D5AF184B7C1F0020301E002052
:1087B0000400310202601000F6B583B006001024F8
:1087C0006846008A210004F0BEF902906846008ADB
:1087D000210004F0B8F901910298FA2149004418E7
:1087E00080204001444380277F006846808939000B
:1087F00004F0A9F96946487068468089390004F098
:10880000A2F9684601700198002803D1200004F005
:10881000C9FB02E001987843241800252800694626
:108820004978C0B288420BD23800020021003000E3
:1088300004F0BEFA802040003618E4196D1CEDE704
:1088400068460078002806D06846027892B2210077
:10885000300004F0ADFA05B0F0BDFFB585B00027DB
:108860003800694608806846007F032807DA6846B2
:10887000007F8321490040186946088010E068465F
:10888000007F032804D1842080006946088007E027
:108890006846007F042803D1FA204000694608801A
:1088A0006846008880214901414302910197089858
:1088B00004686846058B3E00280080B200283CD042
:1088C0006846007F032805DA022C0BD1029804F0D9
:1088D00069FB07E02005000D002803D1029800196C
:1088E00004F060FB2005000D80214901081A039067
:1088F000E0B280214900081A0190280080B2019955
:10890000884202D30198070000E02F000398390045
:1089100089B2884201D2039807003A0092B20298C5
:108920000119059833009BB2C01804F0C5FA38004D
:1089300080B22418F619ED1BBEE70898046009B050
:10894000F0BD71B581B00C002000C0B28321490098
:108950004618300080B280256D014543022229006F
:1089600001A804F0A9FA73BDF8B583204000694658
:10897000088080267601684604887443200004F04D
:1089800011FBFF200830694608806846058875435A
:10899000280004F007FB84277F00380080B246439C
:1089A000300004F0FFFAF1BD02780B78002A4CD0B9
:1089B000401C491C9A4248D18A07F5D1820727D129
:1089C00070B4284CE50104C808C9161B96432E4212
:1089D00008D19A42F7D070BC12BA1BBA9A428041B1
:1089E0004041704770BC12BA1BBA100E0BD0FF2169
:1089F000100C084208D0100A084206D0D01A01D044
:108A00008041404170471B0A1B0A1B0AC01A70476D
:108A100003781A0613D043781B041A4412D08378C3
:108A20001B021A4413D0C3781B421A4415D008C93C
:108A3000001D1BBA9A42EBD08041404170470A7832
:108A4000981A70470B88120C5BBAD01A70470B68E3
:108A5000120A1BBA1B0AD01A70470B681BBAD01A2D
:108A6000EAD170470101010100B5BFF34F8F98486B
:108A7000AC490860BFF34F8F00BFFDE700209C4961
:108A8000087005219B4A1170962149009A4A11806D
:108A900001210A00994B1A70994A1170A249487035
:108AA00008707047F8B58EB0A04DA14884214900E8
:108AB0006850E12080002880C8204000A8801E2047
:108AC00068800F20A87400263000E8749948288137
:108AD00064206881A8811E2028745A2068749648F2
:108AE000E881964882214900685030005521685439
:108AF0003000E880300074216854300075216854DB
:108B0000802040002E503000F821685440270D97F7
:108B10000C962800153000900C9A0D990098FFF7DC
:108B20003BFD00980B970A96854C00940A9A0B9986
:108B30000098FFF731FD00981E2009900896280044
:108B400056300090089A09990098FFF725FD009883
:108B5000079706962F00B737069A07993800FFF750
:108B60001BFD0E200590774804902F001537059ABD
:108B70000499380002F016FC0D2055216854724803
:108B8000E8801220039071480290039A0299200015
:108B900002F008FC11242000B6216854300028752A
:108BA00001946B4800902F00B737019A0099380064
:108BB00002F0F8FBF7202C547820FC216852F920B1
:108BC0002E54B4204000FA2168520FB0F0BDFEB51B
:108BD0000024564DA87C002802D0A87CFF2803D191
:108BE000012004000F20A8745A4E3078002802D0CB
:108BF0003078FF280ED10120040012200190534844
:108C000000902F007637019A0099380002F0CAFBD5
:108C1000112030705520285C002803D05520285C96
:108C2000FF2803D1FFF73EFF012004002000C0B25F
:108C3000012801D1FFF7E2FCF7BD1CB50020009030
:108C4000454C2070042269468020800104F014FA0B
:108C50000098002818D000980021C943884213D0FA
:108C60003E480078002806D101203D490870009850
:108C70003C49086008E03C4800680099401A3B49BC
:108C8000884201D20121217013BD7CB532480078A1
:108C900001281CD1334D28683549884217D3002458
:108CA00000948026B60104226946300004F0E4F9FD
:108CB00000980021C943884200D100940098296897
:108CC000884204D204222900300004F0A7F973BDC1
:108CD0000400FA0500B501202649087026490978E4
:108CE000002903D1254908702549087000BD0000FE
:108CF0000204002003040020EA1E0020911F00202F
:108D0000941F002000B51F484178012908D1007840
:108D1000002805D101201949087000201849087061
:108D200000BD00000CED00E0041E0020481A0020E9
:108D3000D5AF184BC8320000A86100001027000012
:108D4000BE1A002050AE0108F82A000088AA0108C7
:108D50009CAA0108FE1A00208E1F00204A1F002036
:108D60008F1F0020A01E00200800002080F40300B8
:108D700081510100701F002004040020711F002099
:108D8000721F0020481E0020F0B58DB0C148007849
:108D9000012800D078E2C0480078012800D073E2B2
:108DA000BE480078012804D0BD480078012800D0D2
:108DB0006AE2302101A802F053FA01A9B94800681B
:108DC00004F08EFD01A803F09DFEB74C216881429E
:108DD00006D32068401C206001A9206804F080FDB3
:108DE00001A803F08FFE206001AF391DAF48006875
:108DF00004F076FD39000831AD48006804F070FDDC
:108E0000AC4800883873000A7873AB480088B873A0
:108E1000000AF873A948817EB974818AF974018BBC
:108E20007974017F3975417F7975C17E012902D13D
:108E3000012139740AE0C17E022902D1022139746C
:108E400004E0C17E032901D100213974C07E0128CC
:108E500009D10020B873000AF87300200100B9742A
:108E60000100F9747874964E307802214843717885
:108E7000401831780822514340187178102251432C
:108E80004018B178202251434018272178548D484A
:108E90008179072903DA00202A21785426E0817994
:108EA000072902DA81790D2903DA01202A21785471
:108EB0001CE081790D2902DA8179142903DA022074
:108EC0002A21785412E08179142902DA81791A2949
:108ED00003DA03202A21785408E081791A2902DA7A
:108EE0008079212802DA04202A21785476480078F3
:108EF0002C217854390016317448006804F0F0FCD5
:108F00007348006804F0F6FC2B217854714800780F
:108F10002D21785439001A310C006F48006804F094
:108F200007FD210004F0DCFC64246C4D3900203185
:108F30000091E86804F0DEFC80B2210003F003FE3B
:108F400000990870000A4870390022310091A86821
:108F500004F0D0FC80B2210003F0F5FD0099087008
:108F6000000A48703800243000210170090A41705D
:108F70000020B877000AF877C4480168534A12689D
:108F800089180160C2480188491C0180474800686F
:108F9000C049086046480068BF49086046480088E4
:108FA000BE49088000242000474908702000494934
:108FB000087046480460BA480460002046490860CA
:108FC0003748007801281CD1B64D287C01280CD1E7
:108FD0002F202821785401202921785401A805F058
:108FE0004FF82C74FFF78EFE4EE1022028217854B2
:108FF00020002921785401A805F042F8284804707F
:1090000042E126480178012900D03DE1A54D69786B
:10901000012911D1A448018800290BD1962189008A
:10902000018021202821785420002921785401A88A
:1090300005F026F86C7027E12978012911D19B48A9
:10904000018800290BD19621890001802020282148
:10905000785401202921785401A805F011F82C70CA
:1090600012E1E97801293BD12420282178542000FD
:10907000292178542000787401A805F001F8200017
:10908000E8707078012804D1012089490870894866
:109090000470F9E0040400204A1F0020701F002023
:1090A0006F1F002008000020981E0020501E002086
:1090B000541E0020EC1E0020EE1E00204C1C002040
:1090C000481E0020041E0020771F0020901E002054
:1090D000881E0020781F00208C1E0020601D0020AC
:1090E000A97801290AD12320282178540120292197
:1090F000785401A804F0C4FFAC70C5E029790129B7
:109100000FD12920282178540126300029217854B4
:1091100001A804F0B5FF2C7167480670FFF7F2FD57
:10912000B2E0697901290AD134202821785401203C
:109130002921785401A804F0A3FF6C71A4E0A97957
:1091400001290CD12220282178540120292178548A
:1091500001A804F095FFAC71FFF7D4FD94E0E97924
:1091600001290CD128202821785401202921785464
:1091700001A804F085FFEC71FFF7C4FD84E0297AB3
:1091800001290CD12A202821785401202921785442
:1091900001A804F075FF2C72FFF7B4FD74E0E97AC2
:1091A00001290CD12E20282178540120292178541E
:1091B00001A804F065FFEC72FFF7A4FD64E0297BD1
:1091C00001290CD12D2028217854012029217854FF
:1091D00001A804F055FF2C73FFF794FD54E0697A61
:1091E00001290CD12B2028217854012029217854E1
:1091F00001A804F045FF6C72FFF784FD44E0A97AF2
:1092000001290CD12C2028217854012029217854BF
:1092100001A804F035FFAC72FFF774FD34E0697B00
:10922000012910D135202821785401202921785492
:1092300001A804F025FF6C73FFF764FD74480188F2
:10924000491C018020E0A97B01290CD1362028216E
:10925000785401202921785401A804F011FFAC733F
:10926000FFF750FD10E0E97B01290CD137202821C0
:10927000785401202921785401A804F001FFEC73EF
:10928000FFF740FD00E004700DB0F0BD841E00202B
:109290000E1F0020581E00205C1E0020F01E002023
:1092A000941E0020C01D0020221F0020201F00202F
:1092B000711F0020721F0020441F002038B5554C3C
:1092C0002078012800D0A2E0534D28680A2803D254
:1092D0005248007801280BD150480178012901D16A
:1092E000002101704E480178002901D104F010FEE0
:1092F0004C480078012810D14B480078002800D055
:1093000085E047480078002806D0012001009F4AE8
:1093100091719F4908707AE079E09E4800780128B1
:1093200075D19D480078012862D19C4908780128B0
:1093300049D10120A74A0300137004232370AE23F0
:10934000A54D2B70A54B1D78012D04D10121352091
:1093500000F05EF937E05D78012D04D10821352059
:1093600000F056F92FE09D78012D04D10921352018
:1093700000F04EF927E0DD78012D04D10A213520D7
:1093800000F046F91FE01D79012D04D10B21352095
:1093900000F03EF917E05D79012D04D10C21352054
:1093A00000F036F90FE09B79012B04D10D21352017
:1093B00000F02EF907E000231D000D70207018004A
:1093C0001070BD4803708348017800291FD11449EB
:1093D000097800290BD001210170AC207E4908706A
:1093E000042020700021362000F012F90FE00EE07A
:1093F000286800280BD0012076490870AB207649F8
:109400000870022020700121352000F001F931BDE3
:10941000241F00207E1F0020D41D00206E1F00206E
:10942000861F00209A1F0020581F0020F8B5A3486F
:109430000078002800D0A7E0694C2078012840D1AE
:109440009D484189002900D19EE09D4D2978012940
:1094500003D02978062900D096E0624E31780029A1
:1094600006D1012030700121352000F0D1F88BE0C9
:1094700006212970407806F02BF907008F48007804
:10948000012806D10120287000200100514A1170E6
:109490003070380080B240280FD1002001002170C8
:1094A000010031704B4908700120010029704E49BC
:1094B0000978002901D137490870322001F025FFD1
:1094C00062E0444E307801285ED17D4C207802283D
:1094D00002D02078042857D1774F787806F0F8F832
:1094E0006946088075480078012803D10120207062
:1094F000002030706846008840283AD100252800B6
:109500003070354E3078AB2802D1012020703BE01E
:109510003078AD2801D1012020703078AC2805D1F9
:1095200004F0B8FEC2480570012020703078AE28E3
:1095300001D1012020702D480078002821D1F87930
:1095400001281ED12A48006800281AD1294800782D
:10955000012807D128484078012803D10120274954
:1095600008700EE00120264908703820254908704F
:1095700007E068460088412803D1012020700020C0
:109580003070322001F0C1FEF1BD0000A81D0020A6
:10959000561F0020731F0020871F0020901F0020EF
:1095A00010B50400002108000A00230092B29BB20B
:1095B0009A4207D2144A0B009BB2D218127C801830
:1095C000491CF1E780B21149097803F0BCFA0800A0
:1095D00080B210BD891F00208A1F0020201E00209D
:1095E000941F0020951F00209A1F002004040020D3
:1095F000D41D0020961F0020481E0020981F002028
:10960000831F0020821F0020CC0D0020E41D0020BD
:10961000F3B589B00024664E00200390654D2F00FD
:10962000039A31003800FEF7B7FF24206844007821
:10963000210089B26854641C5F4B03CB083B0029AE
:109640001FD100281DD1012001001D4A11700021E9
:109650000A005A4B1A70184A0B0013720B00537011
:109660000B001370564A11700100564A91700100A8
:10967000554A1170E1210901544A11800F490870BF
:109680001EE20822200080B22918180000F01AFFFC
:1096900008344F480178220092B2A954641C017822
:1096A000491C017024206844007835280AD03628E7
:1096B00000D1A1E002E200BF041E0020921F0020A2
:1096C0007E1F0020002001006A4651800290282061
:1096D00068440078210089B26854641C01200100AC
:1096E000220092B2A954641C2821694409780129F6
:1096F0003FD1210089B26854641C04A84D4914224A
:1097000001F036FE1420039004AE200080B22F1822
:10971000039A3100380001F045FE14340422200081
:1097200080B22918E74800F0DEFE241DA41CEC4896
:109730008068EC4906F0BCF80100EB4806F00AF935
:1097400004F0D8F8694648800222200080B2291827
:1097500000A8801C00F0B6FEA41CDB480068029044
:109760000422200080B2291802A800F0ABFE241DBC
:1097700041E028216944097809292BD1D3480068A0
:1097800002900422200080B2291802A800F09AFE5C
:10979000241DCF480088694648800222200080B2FC
:1097A000291800A8801C00F08DFEA41C23E000BF37
:1097B00052030000CC0D0020281E0020891F00202D
:1097C000531F0020F41D00207D1F0020181F0020C3
:1097D0008B1F00202821694409780B290BD1694689
:1097E00048800222200080B2291800A8801C00F0C6
:1097F00069FEA41CFFE761E10020694608800020A3
:1098000001900120210089B26854641CA41C0848FE
:109810000078210089B26854641CA41C0027380019
:1098200003490978C0B2884200D331E1A94E03E070
:10983000861F0020B0AA01083800C0B2302148437A
:1098400030182821405C210089B26854641C38001B
:10985000C0B230214843305801900422200080B229
:10986000291801A800F02EFE241D3800C0B23021B6
:1098700048433018407C210089B26854641C380089
:10988000C0B23021484330182B21405C210089B2FE
:109890006854641C3800C0B23021484330182C2171
:1098A000405C210089B26854641C3800C0B2302189
:1098B000484330182D21405C210089B26854641C53
:1098C0003800C0B2302148433018163003F01AF97E
:1098D00006F098F880A20CCA06F0AEF806F06EF911
:1098E0000390039804F024F801900422200080B231
:1098F000291801A800F0E6FD241D3800C0B230216F
:10990000484330181A3003F0FDF80190042220007B
:1099100080B2291801A800F0D5FD241D3800C0B27E
:109920003021484330182721405C210089B2685417
:10993000641C3800C0B2302148433018007C21003C
:1099400089B26854641C3800C0B2302148433018D2
:10995000406801900422200080B2291801A800F07C
:10996000B1FD241D3800C0B2302148433018806852
:1099700001900422200080B2291801A800F0A2FD65
:10998000241D3800C0B23021484330188089694610
:1099900008800222200080B22918684600F092FD5B
:1099A000A41C3800C0B2302148433018C089694631
:1099B00008800222200080B22918684600F082FD4B
:1099C000A41C3800C0B2302148433018807C2100EC
:1099D00089B26854641C3800C0B230214843301842
:1099E000C07C210089B26854641CA41CA41C3800EB
:1099F000C0B2302148433018C08B6946088002222B
:109A0000200080B22918684600F05CFDA41C3800D4
:109A1000C0B2302148433018008C694608800222C9
:109A2000200080B22918684600F04CFDA41CA41C3C
:109A3000241D241DA41C241D641CA41C0834E41C27
:109A4000241D3800C0B2302148433018408C69468C
:109A500008800222200080B22918684600F032FDFA
:109A6000A41C3800C0B2302148433018808C6946AD
:109A700008800222200080B22918684600F022FDEA
:109A8000A41C0020210089B26854641C7F1CC6E617
:109A90002000103869460880022229000E316846ED
:109AA00000F010FD68460088FFF77AFD69460880DF
:109AB000022229000B31684600F004FD0B480480A7
:109AC0000BB0F0BDC01C00209C1E0020A81E002072
:109AD0001A1F00203C130020333333333333F33F5A
